S0220000687474703A2F2F737265636F72642E736F75726365666F7267652E6E65742F1D
S12300000C9434020C947C020C9451020C9451020C94B1070C94FA070C945B080C947508E9
S12300200C9451020C9451020C9451020C9451020C9451020C9451020C9451020C94510224
S12300400C9451020C9451020C9451020C9451020C9451020C9451020C9451020C94510204
S12300600C94F10A0C9451020C9451020C9451020C9451020C9451020C9451020C94FB088C
S12300800C94880A0C94C10A0C9451020C9451020C9451020C94B2080C9451020C945102A6
S12300A00C9451020C9451020C9451020C9451020C9451020C9451020C9451020C945102A4
S12300C00C9451020C9451020C945102460F460F460F460F460F460F490F490F490F500FDE
S12300E0500F500F500F500F500F500F530F530F630F630F630F630F630F630F680F680F64
S1230100680F6E0F6E0F6E0F6E0F6E0F6E0F6E0F730F730F8F0F8F0F8F0F8F0F8F0F8F0F41
S1230120910F910F910F930F930F930F930F930F930F930F990F990FAD0FAD0FAD0FAD0F2D
S1230140AD0FAD0FAF0FAF0FAF0FB40FB40FB40FB40FB40FB40FB40FB90FB90F09021200E7
S1230160010100803209040000000000000012011001FF000008C016DC05000101020001D3
S12301801E03460061006E002D0043006F006E00740072006F006C006C00650072002603AB
S12301A069006E0066006F0040006F00630074006F006D0069006E00650072002E006300EE
S12301C06F006D0004030904BC5F9C60A4618462B6639664B0659F66B567FFFF00000000E2
S12301E000000000002F000000000700070000147F147F1400242A7F2A1200626408132377
S123020000364955225000000503000000001C224100000041221C000014083E0814000810
S1230220083E0808000000A06000000808080808000060600000002010080402003E514966
S1230240453E0000427F4000004261514946002141454B31001814127F1000274545453974
S1230260003C4A49493000017109050300364949493600064949291E00003636000000001D
S1230280563600000008142241000014141414140000412214080002015109060032495935
S12302A0513E007C1211127C007F49494936003E41414122007F4141221C007F49494941F1
S12302C0007F09090901003E4149497A007F0808087F0000417F4100002040413F01007F7D
S12302E008142241007F40404040007F020C027F007F0408107F003E4141413E007F090904
S12303000906003E4151215E007F091929460046494949310001017F0101003F4040403F58
S1230320001F2040201F003F4038403F0063140814630007087008070061514945430000BE
S12303407F41410000552A552A55000041417F0000040201020400404040404000000102F4
S12303600400002054545478007F4844443800384444442000384444487F00385454541863
S123038000087E0901020018A4A4A47C007F080404780000447D4000004080847D00007FFF
S12303A0102844000000417F4000007C04180478007C0804047800384444443800FC242425
S12303C024180018242418FC007C0804040800485454542000043F444020003C4040207C32
S12303E0001C2040201C003C4030403C004428102844001CA0A0A07C004464544C4400002D
S123040008774100000000630000000041770800000804080804003A4040207A003D4040C4
S1230420403D002154545479007D1211127D003944444439003D4242423D000205020000EF
S1230440007E01495573007C1010081CAE2000B0C8001040813FA1A6A83FA4D300D5F0D9AF
S123046022DA12DB208D140011241FBECFEFD8E0DEBFCDBF13E0A0E0B1E0E6E6F6E202C0B3
S123048005900D92A634B107D9F724E0A6E4B3E001C01D92A031B207E1F70E943D0D0C9443
S12304A031130C940000A82FB92F8FEF9FEF1BC02D918227282F22952827722F26952695D3
S12304C02727239526952170782F892F82272195207C922F22277695279597278227769529
S12304E0279597278227615018F7809590950895DADF8D939D930895CF93CFB7CF93C395F6
S12305004B9BE9F74B9B09C04B9B07C04B9B05C04B9B03C04B9B01C0A1C0DF93C091830310
S1230520DD27C657DC4F4B9B02C0DF91EBCF2F930F931F9309B12FEF03FB20F94F933F93E0
S123054019B14FEF012703FB21F93BE031C04E7F012F19B1216028C0102F4D7F2260000086
S123056009B129C04B7F2460012F000019B12BC019B1477F28602AC04F7E09B120612CC0AB
S12305804F7D19B120622FC04F7B09B1206432C0422709B149934FEF0000102713FB20F9BB
S12305A019B11C70C9F1297F91F2012703FB21F909B1237F89F2315058F1102713FB22F9BB
S12305C019B1277E79F2012703FB23F92F7C81F209B1102713FB24F92F7971F200C019B12C
S12305E0012703FB25F92F7359F200C009B1102713FB26F9223040F200C019B1012703FBB4
S123060027F9243028F64F77206819B10000F9CF11E01CBB002717C03B503195C31BD0405F
S123062011E01CBB0881033CE9F00B34D9F0209181031981110F1213EDCF093641F10D32C5
S123064011F0013E39F7009388033F914F911F910F912F91DF91CCB3C0FD51CFCF91CFBF8E
S1230660CF91189520918803222379F310918603112311F5343012F130938603209382032D
S1230680109183033BE0311B3093830317C00091860301308CF40AE53091010134FD10C02A
S12306A000930101C6E7D3E00FC02795A8F45150A9F4220F0000F9CF4AE503C042ED01C001
S12306C0432FC4E1D0E032E01AB11C605B9A1AB90BB120E41CE05F93012756E00BB92795A2
S12306E020F4515021F4220FF9CF012756E000003B5A0BB9D0F2279528F4515029F4220FF3
S12307000000F9CF012756E027950BB920F4515021F4220FF9CF012756E0299133230BB93A
S123072021F6037F10918703110FC651D0400BB911F01093810311E01CBB08601AB1137F31
S1230740402F437F5F9100C000C00BB91AB94BB97CCFCF93DF9380918603835087FD8AC0FF
S1230760909182039D3209F083C0883009F080C080918303CCE0D0E0C81BD109C657DC4FDB
S123078083EC809376038AE580930101109246038881807621F0CE010E94B00E60C08A8181
S12307A010927F039981911106C0109280032FE733E082E050C0953019F4809387033DC063
S12307C09630A9F59B81913019F48EE691E004C0923041F48CE591E0909385038093840300
S12307E082E121C09330F1F4811108C084EC91E0909385038093840384E015C0813041F46A
S12308008EE991E0909385038093840386E20BC0823041F480E891E090938503809384036F
S12308208EE101C080E090E49093460318C0983079F0993031F4809389032FE733E080E025
S12308400AC081E09A3009F080E02FE733E003C029E833E081E030938503209384039F8130
S1230860911104C09E81981708F4892F80930001109286038091010184FF4CC08091000199
S12308808F3F09F447C0C82F893008F0C8E08C1B809300019091760388E889278093760331
S12308A0CC2359F180918403909185032091460326FF12C0A6E7B3E02C2FAC014657534071
S12308C0FA01EA0FFB1FE4911196EC931197215011962111F5CF08C0E7E7F3E0DC012C2F14
S12308E03D9131932150E1F701962FEF2C0F820F911D90938503809384036C2F87E793E029
S12309000E947802CC5FCC3019F08FEF80930001C093010184E199B19C7031F48150D9F71F
S12309201092870310928103DF91CF910895E9E6F0E0808182608083E89A08951092B900F5
S123094087E08093B80084E08093BC00089594EA9093BC002CE330E09091BC0097FD07C0DD
S123096021503109C9F78091A003816010C08093BB0084E88093BC008CE390E02091BC004E
S123098027FD08C00197D1F78091A00382608093A0030895089584E98093BC000895809395
S12309A0BB0084E88093BC008CE390E02091BC0027FD08C00197D1F78091A00384608093FA
S12309C0A0030895089584EC8093BC008CE390E02091BC0027FD09C00197D1F78091A003AA
S12309E088608093A00380E008958091BB00089584E88093BC008CE390E02091BC0027FD44
S1230A0009C00197D1F78091A00380618093A00380E008958091BB000895FF920F931F9313
S1230A20CF93DF93F82E092F162F88E70E94A70480E00E94CF04CF2DD02FCE01810F911DA2
S1230A408C01C017D10721F089910E94CF04F9CFDF91CF911F910F91FF900C94CB04EF924F
S1230A60FF920F931F93CF93DF937C018B0188E70E94A70480E40E94CF04E7010E0D1F1DDC
S1230A80C017D10721F089910E94CF04F9CFDF91CF911F910F91FF90EF900C94CB04CF933C
S1230AA0DF9300D000D0CDB7DEB78631B0F46830A0F4982F990F890F880F80934703609392
S1230AC048036055698391E29A838B838FE78C8364E0CE0101960E940D050F900F900F90C8
S1230AE00F90DF91CF910895CF93DF9300D000D0CDB7DEB7E7E4F3E01082118280EB89831F
S1230B0081E28A831B828FE78C8364E0CE0101960E940D050F900F900F900F90DF91CF9195
S1230B200895EF92FF921F93CF93DF93CDB7DEB7C058D1090FB6F894DEBF0FBECDBFCE015B
S1230B4001967C0180E8F70111928A95E9F710E0612F80E00E944F0560E870E0C7010E94A3
S1230B602F051F5F1830A1F70E947405C058DF4F0FB6F894DEBF0FBECDBFDF91CF911F91B7
S1230B80FF90EF9008951F93CF93DF93CDB7DEB76C970FB6F894DEBF0FBECDBF182F0E94D4
S1230BA09E04ECE4F4E0DE0111969E01245E3F4FCD0144914D933196A217B307D1F71C8F86
S1230BC06CE10E940D050E9491056C960FB6F894DEBF0FBECDBFDF91CF911F9108951F93C0
S1230BE0CF93DF931F92CDB7DEB7182F88E70E94A704113011F086EA01C087EA898361E01F
S1230C00CE0101960E940D050F90DF91CF911F9108951F93CF93DF931F92CDB7DEB7182F63
S1230C2088E70E94A704113011F08FEA01C08EEA898361E0CE0101960E940D050F90DF918A
S1230C40CF911F910895CF93DF9300D0CDB7DEB791E899838A8362E0CE0101960E940D0528
S1230C600F900F90DF91CF9108958F929F92AF92BF92CF92DF92EF92FF920F931F93CF9347
S1230C80DF93CDB7DEB760970FB6F894DEBF0FBECDBF893001F1B8F4883009F045C0809169
S1230CA047039091020160914803891B0E944F0580E20E943506809147039091020160913D
S1230CC04803891B1FC08A3021F18D3069F56091480380E017C0809147039091020124E065
S1230CE0929FA0011124BA01680F711D25E130E0241B350B6217730740F4990F990F60912C
S1230D004803890F0E944F05FBC06091480385E1F9CF60914803673008F0F2C08091020140
S1230D20680F80914703EECF909147039A3708F0E7C0803208F4E4C08052E9ECF1E0E49106
S1230D408E17F8F040E0082F10E0242F30E0220F331FC90187539E4FFC0154915F3F09F4C7
S1230D60CFC0F901E853FE4FE491F0E0B097E017F10729F4FC0184918F3F19F4C1C04F5FAA
S1230D80E4CF90910201F6E08F9F80011124923009F098C0CE0101967C01DC0120E030E0DB
S1230DA0CC24C394D12C11961C921E92F801E20FF31FE452FE4FE49141E050E080E090E0D1
S1230DC0AE2EB12CB501082E02C0759567950A94E2F760FF1BC0ED91FC911197B601042E55
S1230DE002C0660F771F0A94E2F7E62BF72BBC01660F771F460102C0880C991C6A95E2F786
S1230E00B4016E2B7F2B11967C936E9301964E5F5F4F88309105B1F62F5F3F4F129626301E
S1230E20310509F0C0CF88E70E94A70480E40E94CF048E01035F1F4F6701F601B080F2E09B
S1230E40CF0ED11C8B2D0E94CF048B2D0E94CF040C151D0591F70E94CB04809148038F54EF
S1230E608D8781E28E87809147038F878FE7888B64E0C8010E940D0588E70E94A70480E407
S1230E800E94CF04F701D180F2E0EF0EF11C8D2D0E94CF048D2D0E94CF040E151F0591F787
S1230EA00E94CB048091480380558D8780914703845F8F8764E0C8010E940D058091470308
S1230EC0845F1CC088E70E94A70480E40E94CF04E12CF12CF801EE0DFF1DE452FE4F8491E8
S1230EE00E94CF042FEFE21AF20A86E0E816F10489F70E94CB04809147038A5F8093470378
S1230F0060960FB6F894DEBF0FBECDBFDF91CF911F910F91FF90EF90DF90CF90BF90AF9006
S1230F209F908F900895809302010895CF93DF93EC018991882319F00E943506FACFDF916A
S1230F40CF910895CF93DF93FC018491EF012196882321F00E943506FE01F7CFDF91CF91D5
S1230F60089578941F920F920FB60F9211242F933F938F939F9390B180915E03892790B14B
S1230F8090935E0380FF0AC02091C0033091C1032F5F3F4F3093C1032093C00381FF0AC024
S1230FA02091AA033091AB032F5F3F4F3093AB032093AA0382FF0AC02091AE033091AF0353
S1230FC02F5F3F4F3093AF032093AE0383FF09C08091AC039091AD0301969093AD038093BF
S1230FE0AC039F918F913F912F910F900FBE0F901F90189578941F920F920FB60F921124FE
S12310002F933F938F939F9393B180915D03892793B190935D0380FF0AC02091B203309148
S1231020B3032F5F3F4F3093B3032093B20381FF0AC02091B4033091B5032F5F3F4F3093EF
S1231040B5032093B40382FF0AC02091B0033091B1032F5F3F4F3093B1032093B00385FFC9
S12310600AC02091B8033091B9032F5F3F4F3093B9032093B80386FF0AC02091BA03309132
S1231080BB032F5F3F4F3093BB032093BA0387FF09C08091B6039091B70301969093B70319
S12310A08093B6039F918F913F912F910F900FBE0F901F90189578941F920F920FB60F9255
S12310C011248F939F93EF93FF93EAEAF3E0848D958D0196958F848FFF91EF919F918F9167
S12310E00F900FBE0F901F90189578941F920F920FB60F9211242F933F938F939F9399B15A
S123110080915C03892799B190935C0380FF0AC02091C8033091C9032F5F3F4F3093C903E2
S12311202093C80386FF0AC02091CA033091CB032F5F3F4F3093CB032093CA0387FF09C055
S12311408091CC039091CD0301969093CD038093CC039F918F913F912F910F900FBE0F9063
S12311601F90189578941F920F920FB60F9211242F933F938F939F939CB180915B038927C2
S12311809CB190935B0382FF0AC02091C4033091C5032F5F3F4F3093C5032093C40383FF8E
S12311A00AC02091C2033091C3032F5F3F4F3093C3032093C20385FF0AC02091BC033091C8
S12311C0BD032F5F3F4F3093BD032093BC0386FF09C08091BE039091BF0301969093BF03BB
S12311E08093BE039F918F913F912F910F900FBE0F901F90189578941F920F920FB60F920C
S123120011244F925F926F927F928F929F92AF92BF92CF92DF92EF92FF920F931F932F93D3
S12312203F934F935F936F937F938F939F93AF93BF93CF93DF93EF93FF9387EC9DE290930B
S12312409900809398008BE494E090939B0080939A0080915F039FEF980F9530E8F0AEED18
S1231260B3E0EAEAF3E08EEC93E065E040815181649F9001659F300D11242D933D9311922E
S123128011928E179F0791F780915F03882309F1815080935F031DC08130B1F7EEEDEE2E49
S12312A0E3E0FE2E0AEA13E0C4E1D0E0F80160817181F701619371937F01CE010E94081337
S12312C0F801119211928F012296C833D10571F7DBCF6091D2037091D3038091D4039091FA
S12312E0D50320916A0330916B0340916C0350916D030E948B1229013A0182E07694679429
S1231300579447948A95D1F76091D6037091D7038091D8039091D90320916E0330916F0339
S123132040917003509171030E948B1249015A0192E0B694A794979487949A95D1F7609107
S1231340DA037091DB038091DC039091DD03209172033091730340917403509175030E943C
S12313608B1269017A0122E0F694E794D794C7942A95D1F76091CE037091CF038091D0031A
S12313809091D103209166033091670340916803509169030E948B12DA01C90132E0B69545
S12313A0A795979587953A95D1F79C01220F331FF901ED5FFE4F808191819093A30380936C
S12313C0A203C201880F991FFC01ED5FFE4F808191819093A5038093A403C401880F991F10
S12313E0FC01ED5FFE4F808191819093A7038093A603C601880F991FFC01ED5FFE4F80810A
S123140091819093A9038093A8031092CE031092CF031092D0031092D1031092D20310923E
S1231420D3031092D4031092D5031092D6031092D7031092D8031092D9031092DA031092CC
S1231440DB031092DC031092DD031092660310926703109268031092690310926A031092C4
S12314606B0310926C0310926D0310926E0310926F031092700310927103109272031092CC
S123148073031092740310927503109262038091600390916103019690936103809360030B
S12314A080916303823020F098B180E2892788B980916403823020F098B180E4892788B97B
S12314C080916503823018F088B1805888B9FF91EF91DF91CF91BF91AF919F918F917F91B3
S12314E06F915F914F913F912F911F910F91FF90EF90DF90CF90BF90AF909F908F907F9071
S12315006F905F904F900F900FBE0F901F90189578941F920F920FB60F9211248F939F9346
S123152080919800909199008953924D90939900809398008091600390916103019690936F
S123154061038093600380916303833021F498B180E2892788B980916403833021F498B149
S123156080E4892788B980916503833019F488B1805888B99F918F910F900FBE0F901F907D
S1231580189578941F920F920FB60F9211248F939F9380919A0090919B00855B9B4F9093F9
S12315A09B0080939A0080916303823021F498B180E2892788B980916403823021F498B17D
S12315C080E4892788B980916503823019F488B1805888B99F918F910F900FBE0F901F901E
S12315E0189578941F920F920FB60F9211242F933F938F939F93AF93BF9380917C008F7039
S1231600853009F464C080F5843009F0BBC020917800309179008091CE039091CF03A091EA
S1231620D003B091D103820F931FA11DB11D8093CE039093CF03A093D003B093D1038091E8
S1231640660390916703A0916803B09169030196A11DB11D8093660390936703A09368037F
S1231660B093690385E48CC0863009F45DC0873009F088C020917800309179008091DA03E9
S12316809091DB03A091DC03B091DD03820F931FA11DB11D8093DA039093DB03A093DC0344
S12316A0B093DD038091720390917303A0917403B09175030196A11DB11D809372039093B7
S12316C07303A0937403B093750384E459C020917800309179008091D2039091D303A09139
S12316E0D403B091D503820F931FA11DB11D8093D2039093D303A093D403B093D503809110
S12317006A0390916B03A0916C03B0916D030196A11DB11D80936A0390936B03A0936C03A2
S1231720B0936D0386E42CC020917800309179008091D6039091D703A091D803B091D9032B
S1231740820F931FA11DB11D8093D6039093D703A093D803B093D90380916E0390916F038B
S1231760A0917003B09171030196A11DB11D80936E0390936F03A0937003B093710387E408
S123178080937C0080917A00806480937A00BF91AF919F918F913F912F910F900FBE0F903F
S12317A01F901895089809980A980B982098219822982598269827983A9850985698579847
S12317C06A986B986D986E98109A119A129A139A289A299A2A9A2D9A2E9A2F9A429A589AD8
S12317E05E9A5F9A729A739A759A769A8FE080936B0087EE80936C0084E080936D0081EC8A
S1231800809373008CE680937500E8E6F0E080818F61808384E480937C008FEC80937A00B3
S12318200895239A249A549A559A91EA94BD81E085BD909380008093810080E090E00E9497
S1231840E81287BD81E090E00E94E81288BD82E090E00E94E81290E090938B0080938A006B
S123186083E090E00E94E81290E09093890080938800439844984598469847983B9A3C9A42
S12318803D9A3E9A3F9A109290008DE18093910084E599E8909397008093960087EC9DE239
S12318A090939900809398008BE494E090939B0080939A0086E28093710008950F93880FAD
S12318C0411104C0011134C080E06AC094EA9093BC009091BC0097FFFCCF9091B900987FD2
S12318E0983019F0903109F05FC08093BB0094E89093BC009091BC0097FFFCCF9091B900F9
S1231900987F983109F050C0FB0154E891919093BB005093BC009091BC0097FFFCCF9091A4
S1231920B900987F983209F03FC0415079F7CACF94EA9093BC009091BC0097FFFCCF9091BB
S1231940B900987F983011F0903171F58F5F8093BB0084E88093BC008091BC0087FFFCCFAE
S12319608091B900887F8034F9F4F90194EC34E8013019F43093BC0002C09093BC008091EC
S1231980BC0087FFFCCF8091B900807F803561F48091BB00819301508E2F821B0111E8CF0F
S12319A094E99093BC0004C084E98093BC0080E00F910895CF92DF92FF920F931F93CF9311
S12319C0DF9300D0CDB7DEB7A8958FEA0E94C3050E9491058FEF0E942306A89582E00E94C6
S12319E0930700E010E094E1C92ED12CC80188539F4F0E94E812F82E8FEF8F0D8E3F48F499
S1231A00C801B6010E9477120E944F058F2D0E9435060F5F1F4F003A110541F7A89581E086
S1231A200E94930700E010E084E1C82ED12CC80188599E4F0E94E812F82E8FEF8F0D8E3FFE
S1231A4060F4C801B6010E9477120E944F05F9821A82CE0101960E9496070F5F1F4F003ABB
S1231A60110529F7A8950F900F90DF91CF911F910F91FF90DF90CF9008959FE088E10FB6EA
S1231A80F894A895809360000FBE90936000A895A5E0B4E0EEE0F0E091E2909357008491C0
S1231AA08D933196E831F105C1F70E94DA0C0E949704519A599A0E94D20B0E94110C789487
S1231AC0A895109204041092030484E690E00E94E8128093A103833018F160E084E690E06F
S1231AE00E94F6121092A10362E085E690E00E94F61260E086E690E00E94F61260E070E0D5
S1231B0087E690E00E94081360E070E089E690E00E94081360E070E08BE690E00E940813CD
S1231B2085E690E00E94E81280930F0486E690E00E94E812809302048091A103823019F4FF
S1231B4087E690E004C0813041F489E690E00E94F0129093040480930304C3E00E94A90341
S1231B60A895209160033091610380910304909104042817390708F4C2C08091A103823046
S1231B8009F048C060910F04611134C061E084E690E00E94F61262E085E690E00E94F6124A
S1231BA08BE690E00E94F012BC016F5F7F4F8BE690E00E940E132FE789EA93E02150804072
S1231BC09040E1F700C00000439A2FE78FE492E1215080409040E1F700C0000043989CE0D0
S1231BE088E10FB6F894A895809360000FBE90936000FFCF615085E690E00E94F6129CE0A7
S1231C0088E10FB6F894A895809360000FBE90936000FFCF813009F072C060910F046111E6
S1231C205EC080910204811124C084E690E00E94F6121092A10362E085E690E00E94F61264
S1231C4082E080930F048BE690E00E94F012BC016F5F7F4F8BE690E00E940E132FE789EAED
S1231C6093E0215080409040E1F700C00000449A46C062E085E690E00E94F61260910204B2
S1231C80615086E690E00E94F6128BE690E00E94F012BC016F5F7F4F8BE690E00E940E1387
S1231CA02FE789EA93E0215080409040E1F700C00000439A2FE78FE492E1215080409040B1
S1231CC0E1F700C0000043989CE088E10FB6F894A895809360000FBE90936000FFCF6150D8
S1231CE085E690E00E94F6129CE088E10FB6F894A895809360000FBE90936000FFCF809146
S1231D00A103882379F080910F04813019F4C093640308C0811104C082E08093640302C0AF
S1231D201092640380916303811101C0459880916303813009F4459A80916403811102C01F
S1231D40469803C0813009F4469A80916503811102C0479803CF813009F000CF479AFECEAC
S1231D60CF92DF92EF92FF920F931F93CF93DF9300D000D0CDB7DEB729E433E0309385032F
S1231D8020938403DC0111961C91193009F4D7C07C011A30C8F5143009F4ACC0D0F41130C1
S1231DA009F466C008F419C1123009F47FC0133009F07AC3FC01848190E0880F991FFC0171
S1231DC0E252FC4F208120934903FC01E152FC4FF1C0163009F419C108F4F1C0173009F4A6
S1231DE027C1183009F060C3DC0114968C9190E0880F991FFC01EE55FC4F20812093490305
S1231E00FC01ED55FC4FD6C01F3009F4B7C0F0F41B3009F482C108F46FC11D3009F4B9C07D
S1231E201E3009F041C3DC011496EC90F12CBAE0EB0EF11CEE0CFF1CC7010E94E812809307
S1231E404903C70101960E94E812B5C0113909F491C238F4103109F46CC1113109F4FBC196
S1231E6023C3123909F4A4C2133909F4ABC21CC3DC011496EC918E2F90E08231910508F0C3
S1231E8013C3FC01EA59FF4F0C94AD1280E090E002C081E090E00E94E8128093490305C355
S1231EA082E090E0F8CF83E090E0F5CFDC011496EC918E2F90E082319105E0F4FC01E85863
S1231EC0FF4F0C94AD12F701628180E090E010C0D70112966C9181E090E00AC0F7016281E3
S1231EE082E090E005C0D70112966C9183E090E00E94F61210915F031111D6C2D70114960E
S1231F00EC918E2F90E08231910508F0CEC2FC01E657FF4FD70112968C910C94AD1287BD7A
S1231F20C4C288BDC2C290E090938B0080938A00BCC290E09093890080938800B6C2DC0109
S1231F401496EC918E2F90E08231910508F0ACC2FC01E456FF4F0C94AD1287B501C088B55C
S1231F608093490311E0A1C280918A0090918B00F7CF8091880090918900F2CFFC016281B9
S1231F807381848190E00A96880F991F0E9408138BC28FEF87BD88BD8FEF90E090938B0038
S1231FA080938A00909389008093880084E180935F037AC2808180934A0312E076C2DC01BB
S1231FC01496EC911497E33008F06EC2F0E0ED59FC4F12968C91808367C2469A10926103B8
S1231FE01092600362E085E690E00E94F61282E080930F04BFE7E9EAF3E0B150E040F040EC
S1232000E1F700C00000469850C239E4E32E33E0F32E04E610E0C8010E94E812D7018D939B
S12320207D010F5F1F4F0D361105A9F719E03DC2109261031092600360E084E690E00E948A
S1232040F6121092A10362E085E690E00E94F61212E010930F04F701658186E690E00E9463
S1232060F612D70115968C911597809302041092640314966C91662309F416C2B4E16B9F42
S1232080B001112489E690E00E940813F7018481F4E18F9FC001112490930404809303047F
S12320A061E084E690E00E94F61281E08093A103D70112968D919C911397009709F4F4C181
S12320C023E0C22ED12CB6010E94631287E690E00E940813F70182819381B6010E946312C7
S12320E0709304046093030462E084E690E00E94F6121093A103D8C18BE08093490380E9FE
S123210090E00E94E81280934A038DE890E00E94E81280934B0313E0C8C1E5E0F4E0A9E4CB
S1232120B3E081918D9324E0EF30F207D1F71AE0BCC182E8898302E09E012F5F3F4F41E047
S1232140B90181E00E945E0C8A8180934903898180934A0383E889839E012F5F3F4F41E02D
S1232160B90181E00E945E0C8A8180934B03898180934C0386E889839E012F5F3F4F41E006
S1232180B90181E00E945E0C8A8180934D03898180934E0381E889839E012F5F3F4F41E0E7
S12321A0B90181E00E945E0C8A8180934F0389818093500388E889839E012F5F3F4F41E0BC
S12321C0B90181E00E945E0C8A818093510389818093520315E819839E012F5F3F4F41E07B
S12321E0B90181E00E945E0C8A818093530389818093540384E889839E012F5F3F4F41E078
S1232200B90181E00E945E0C8A818093550389818093560319839E012F5F3F4F41E0B90175
S123222081E00E945E0C8A818093570389818093580387E889839E012F5F3F4F41E0B9012C
S123224081E00E945E0C8A8180935903898180935A0312E12AC1DC0115966C911597149660
S12322608C910E944F05F70183818D7F19F481E00E949307D70113968C918D7F813019F42D
S123228082E00E949307F70182810E943506D70113968C911397823089F415968C911597D9
S12322A014962C91B4E18B9FC0011124820F911DF701628188599E4F0E94F612D7011396EB
S12322C08C911397833009F041C015968C91159714962C91B4E18B9FC0011124820F911DB7
S12322E0F701628188539F4F0E94F612D70115962C91159714968C9190E0B4E12B9F800D7D
S1232300911D112460E087539F4F0E94F612F7012581848190E0F4E12F9F800D911D1124FE
S123232060E084529F4F0E94F612D70115962C91159714968C9190E0B4E12B9F800D911D2E
S1232340112460E083529F4F0E94F612F7018381843009F0A9C00E94910508EC10E060E029
S1232360C8010E94F6120F5F1F4F0830F2E01F07B1F79AC0809162038F5F80936203853047
S123238008F492C0439A2FE73FE482E1215030408040E1F700C0000043989CE088E10FB6B4
S12323A0F894A895809360000FBE90936000FFCF809162038F5F80936203853008F474C0FE
S12323C0449A72C0809162038F5F80936203853008F46AC063E983E990E00E94F6129CE0E4
S12323E088E10FB6F894A895809360000FBE909360000E94910582E00E94930760E081E0A8
S12324000E944F0583E093E00E94960763E080E00E944F058DE093E00E94960781E00E94F2
S1232420930765E080E00E944F0588E193E00E94960780E990E00E94E8124AE0BE016F5F1C
S12324407F4F90E00E94B312CE0101960E94960766E080E00E944F0587E293E00E94960777
S12324608DE890E00E94E8124AE0BE016F5F7F4F90E00E94B312CE0101960E94960767E08F
S123248080E00E944F0586E393E00E9496074AE0BE016F5F7F4F8BE090E00E94B312CE0131
S12324A001960E949607FFCF10E0812F0F900F900F900F90DF91CF911F910F91FF90EF902A
S12324C0DF90CF900895AA1BBB1B51E107C0AA1FBB1FA617B70710F0A61BB70B881F991FF9
S12324E05A95A9F780959095BC01CD01089597FB072E16F4009407D077FD09D00E94631247
S123250007FC05D03EF4909581959F4F0895709561957F4F0895A1E21A2EAA1BBB1BFD011D
S12325200DC0AA1FBB1FEE1FFF1FA217B307E407F50720F0A21BB30BE40BF50B661F771F0D
S1232540881F991F1A9469F760957095809590959B01AC01BD01CF010895EE0FFF1F0590B2
S1232560F491E02D0994BB274A3031F4992322F4BDE2909581959F4F0C94BF12BB27FB01BE
S12325805527AA27880F991FAA1FA41710F0A41B83955051B9F7A05DAA3308F0A95DA193E3
S12325A0009779F7B111B1931192CB010C94D812DC01FC01672F71917723E1F7329704C0A0
S12325C07C916D9370836291AE17BF07C8F30895F999FECF92BD81BDF89A992780B5089511
S12325E0A8E1B0E042E050E00C941513262FF999FECF92BD81BDF89A019700B4021639F044
S12326001FBA20BD0FB6F894FA9AF99A0FBE08950196272F0E94F7120C94F6120E94231306
S1232620272F0C942413DC01CB01FC01F999FECF06C0F2BDE1BDF89A319600B40D92415014
S12326405040B8F70895262FF999FECF1FBA92BD81BD20BD0FB6F894FA9AF99A0FBE0196C7
S12326600895F894FFCFFF5A011901EF00C500AF00A10096008E00870081007C0078007453
S12326800071006E006B0068006600630061005F005D005B005A005800570055005400523F
S12326A000510050004F004D004C004B004A00490048004700460045004400440043004288
S12326C0004100400040003F003E003D003D003C003B003B003A003900390038003700373A
S12326E00036003600350035003400330033003200320031003100300030002F002F002EB4
S1232700002E002D002D002C002C002B002B002A002A002A00290029002800280027002711
S123272000270026002600250025002500240024002300230023002200220021002100215B
S1232740002000200020001F001F001E001E001E001D001D001D001C001C001B001B001B9D
S1232760001A001A001A0019001900190018001800180017001700170016001600160015D8
S1232780001500140014001400130013001300120012001200110011001100100010001012
S12327A0000F000F000F000E000E000E000D000D000D000C000C000B000B000B000A000A4A
S12327C0000A00090009000900080008000800070007000600060006000500050005000485
S12327E00004000300030003000200020001000100010000000000FFFFFFFFFEFFFEFFFECD
S1232800FFFDFFFDFFFCFFFCFFFBFFFBFFFAFFFAFFF9FFF9FFF8FFF8FFF7FFF7FFF6FFF62C
S1232820FFF5FFF5FFF4FFF3FFF3FFF2FFF2FFF1FFF0FFF0FFEFFFEEFFEDFFEDFFECFFEB9D
S1232840FFEAFFE9FFE8FFE7FFE6FFE5FFE4FFE3FFE2FFE0FFDFFFDDFFDCFFDAFFD8FFD56F
S1232860FFD2FFCEFFC9FFC4FF4F43544F4D494E455200424F4F544C4F41444552004861E8
S1232880726477617265207265762E2000426F6F746C646572207265762E20004669726D70
S10F28A077617265207265762E200000BE
S12370009EC00000DDC00000C1C00000BFC00000BDC00000BBC00000B9C00000B7C0000089
S1237020B5C00000B3C00000B1C00000AFC00000ADC00000ABC00000A9C00000A7C00000DC
S1237040A5C00000A3C00000A1C000009FC000009DC000009BC0000099C0000097C000003C
S123706095C0000093C0000091C000008FC000008DC000008BC0000089C0000087C000009C
S123708085C0000083C0000081C000007FC000007DC000007BC0000079C0000077C00000FC
S12370A075C0000073C0000071C000006FC000006DC000006BC0000069C0000067C000005C
S12370C065C0000063C0000061C00000BBBEEC2DFD2DB7B6B0FCFDCF27BFE895B7B6B0FC26
S12370E0FDCF21E1B7B6B6FCF4CF089509021200010100803209040000000000000012014E
S12371001001FF000008C016DC050201010200010E035500530042006100730070001C0337
S12371207700770077002E00660069007300630068006C002E0064006500040309041124FF
S12371401FBECFEFD8E0DEBFCDBF24B7D8E0CEEF39913833399109F03FEF30933C01209386
S12371603B0111E0A0E0B1E0E6E7F9E702C005900D92A630B107D9F721E0A6E0B1E001C0F3
S12371801D92AB33B207E1F796D1F3C339CFA82FB92F80E090E041E050EA609530E009C0F0
S12371A02D9182279795879510F084279527305EC8F36F5FA8F30895EADF8D939D930895B0
S12371C0CF93CFB7CF93C3954B9BE9F74B9B09C04B9B07C04B9B05C04B9B03C04B9B01C0EC
S12371E0A1C0DF93C0911E01DD27CB5DDE4F4B9B02C0DF91EBCF2F930F931F9309B12FEF2F
S123720003FB20F94F933F9319B14FEF012703FB21F93BE031C04E7F012F19B1216028C01B
S1237220102F4D7F2260000009B129C04B7F2460012F000019B12BC019B1477F28602AC0E5
S12372404F7E09B120612CC04F7D19B120622FC04F7B09B1206432C0422709B149934FEFF8
S12372600000102713FB20F919B11C70C9F1297F91F2012703FB21F909B1237F89F23150D9
S123728058F1102713FB22F919B1277E79F2012703FB23F92F7C81F209B1102713FB24F9EB
S12372A02F7971F200C019B1012703FB25F92F7359F200C009B1102713FB26F9223040F2A2
S12372C000C019B1012703FB27F9243028F64F77206819B10000F9CF11E01CBB002717C0C2
S12372E03B503195C31BD04011E01CBB0881033CE9F00B34D9F020911C011981110F12132D
S1237300EDCF093641F10D3211F0013E39F7009323013F914F911F910F912F91DF91CCB327
S1237320C0FD51CFCF91CFBFCF91189520912301222379F310912101112311F5343012F187
S12373403093210120931D0110911E013BE0311B30931E0117C00091210101308CF40AE540
S12373603091010134FD10C000930101C1E1D1E00FC02795A8F45150A9F4220F0000F9CFFF
S12373804AE503C042ED01C0432FC4E1D0E032E01AB11C605B9A1AB90BB120E41CE05F9371
S12373A0012756E00BB9279520F4515021F4220FF9CF012756E000003B5A0BB9D0F22795F3
S12373C028F4515029F4220F0000F9CF012756E027950BB920F4515021F4220FF9CF01270D
S12373E056E0299133230BB921F6037F10912201110FC651D0400BB911F010931C0111E065
S12374001CBB08601AB1137F402F437F5F9100C000C00BB91AB94BB97CCFDC0113963C91F2
S12374201397932F1496EC9114978E2F12962C911297203331F4E370F0E0EE5FFE4F808109
S12374400895283529F431110EC0E1E0F0E006C0203599F431110CC0E0E0F0E089E08093AE
S1237460570084910895383021F5E3E0F0E0F6CF3830F9F4E2E0F0E0F1CF203221F4FC011E
S1237480EE0FFF1F06C0283231F4FC01EE0FFF1F319684910895203A09F443C2203C21F42A
S12374A015966C9158D205C02F3F19F481EF80930F0180E008953D9A459A3E9A469A3F9ADF
S12374C0479A69E070E08DE890E033D267E070E080E990E02ED281E085BF92E095BFE0EC9D
S12374E0F4EDA89531978040E1F783E990E019D2833929F460E083E990E01BD214C03399C1
S123750012C0F894519859983D9845983E9846983F9847981DBA1092690081E085BF15BEB9
S1237520E0E0F0E009958EEF80930F0114BE0FB6F894A895809160008861809360001092AA
S123754060000FBE80916900826080936900E89A5198599889E0E0ECF7E2A89531978040F3
S1237560E1F7519A599A789410912101135017FD41C180911E01CCE0D0E0C81BD109CB5D98
S1237580DE4F80911D018D3209F0B8C0183009F02FC183EC809311018AE580930101109270
S12375A010013881832F807699818823C1F146E051E05093200140931F01933031F4CE01D9
S12375C02CDF8093090184E08FC0953009F48BC09A3009F488C08CEF890F8630B0F44A8178
S12375E05B8150930E0140930D01993009F491C18E8180930C012D81227020930B0190936F
S12376000A0137FD6CC08FEF6AC080910F01923011F48E7F01C0816080930F017AC18A8153
S123762010921A01911106C010921B012AE131E082E050C0953019F4809322013DC096300A
S1237640A9F59B81913019F48EEF90E704C0923041F48CEE90E79093200180931F0182E124
S123766021C09330F1F4811108C08AE391E79093200180931F0184E015C0813041F48EE139
S123768091E79093200180931F018CE10BC0823041F480E191E79093200180931F018EE01A
S12376A001C080E090E4909310011EC0983079F0993031F4809324012AE131E080E00AC082
S12376C081E09A3009F080E02AE131E003C024E231E081E03093200120931F0105C090E8D7
S12376E09093100108C081E09F81911104C09E81981708F4892F809300017AC080911001B1
S123770087FF76C000910C01011708F4102F011B00930C01F12CF11608F066C020910A01FE
S123772080910D0190910E01273080F06E01FFEFCF1ADF0A68819C012F5F3F4F30930E018C
S123774020930D0108D1F394E601E5CF8115904708F04CC0F394F394F894E0910D01F0915E
S12377600E012991399181E0090180935700E8951124789480910D0190910E0102969093D5
S12377800E0180930D018F779927892B51F00111C2CFF11608F4BFCF80910B01882309F401
S12377A0BACFF894E0910D01F0910E01329783E080935700E895789407B600FCFDCFF89471
S12377C0E0910D01F0910E01329785E080935700E895789407B600FCFDCFF89481E18093EF
S12377E05700E895789497CF011102C010920001109221018091010184FF67C08091000135
S12378008F3F09F462C0C82F893008F0C8E08C1B809300019091110188E8892780931101F4
S1237820CC2309F478C08091100187FF2AC080910C018C1708F4C82F8C1B80930C01D090B3
S12378400A01D0E082E1E82E81E0F82ECD1789F100910D0110910E0186E08D1518F4C801DF
S123786060D002C0F8018491F7018083FFEFEF1AFF0A0F5F1F4F10930E0100930D01DF5F9C
S1237880E5CFE0911F01F0912001A2E1B1E086FF07C08C2F94919D9331968150D9F705C060
S12378A08C2F91919D938150E1F7F0932001E0931F016C2F82E191E07FDCCC5FCC3019F0DD
S12378C08FEF80930001C093010184E199B19C7031F48150D9F71092220110921C018091A7
S12378E00F01803130F033990FC080910F01805109C0339B09C080910F01823028F08091BA
S12379000F01825080930F0180910F0181112CCEF8CD80E0E9CE60E082E191E04DDCC4E0F4
S1237920CFCFF999FECF92BD81BDF89A992780B50895262FF999FECF92BD81BDF89A01972A
S123794000B4021639F01FBA20BD0FB6F894FA9AF99A0FBE0895262FF999FECF1FBA92BDBA
S11F796081BD20BD0FB6F894FA9AF99A0FBE01960895F894FFCFFF5A1E951700F6
S503019269
S90370008C
