S0220000687474703A2F2F737265636F72642E736F75726365666F7267652E6E65742F1D
S12300000C94EC010C9434020C9409020C9409020C9469070C94B2070C9409020C94090264
S12300200C9409020C9409020C9409020C9409020C9409020C9409020C9409020C94090264
S12300400C9409020C9409020C9409020C9409020C9409020C9409020C9409020C94090244
S12300600C942E0A0C9409020C9409020C9409020C9409020C9409020C9409020C942008DA
S12300800C94B5090C94F6090C9409020C9409020C9409020C94EF070C9409020C94090272
S12300A00C9409020C9409020C9409020C9409020C9409020C9409020C9409020C940902E4
S12300C00C9409020C9409020C94090209021200010100803209040000000000000012012A
S12300E01001FF000008C016DC050001010200011E03460061006E002D0043006F006E00A5
S1230100740072006F006C006C0065007200260369006E0066006F0040006F00630074007C
S12301206F006D0069006E00650072002E0063006F006D0004030904BC5F9C60A4618462AE
S1230140B6639664B0659F66B567FFFF0000000000000000002F0000000007000700001403
S12301607F147F1400242A7F2A1200626408132300364955225000000503000000001C22BC
S12301804100000041221C000014083E08140008083E0808000000A060000008080808089F
S12301A0000060600000002010080402003E5149453E0000427F400000426151494600213D
S12301C041454B31001814127F10002745454539003C4A494930000171090503003649498A
S12301E0493600064949291E000036360000000056360000000814224100001414141414C2
S123020000004122140800020151090600324959513E007C1211127C007F49494936003E9A
S123022041414122007F4141221C007F49494941007F09090901003E4149497A007F080846
S1230240087F0000417F4100002040413F01007F08142241007F40404040007F020C027FA6
S1230260007F0408107F003E4141413E007F09090906003E4151215E007F091929460046DC
S1230280494949310001017F0101003F4040403F001F2040201F003F4038403F006314081A
S12302A0146300070870080700615149454300007F41410000552A552A55000041417F005D
S12302C0000402010204004040404040000001020400002054545478007F48444438003873
S12302E04444442000384444487F00385454541800087E0901020018A4A4A47C007F08049E
S123030004780000447D4000004080847D00007F102844000000417F4000007C041804788C
S1230320007C0804047800384444443800FC242424180018242418FC007C080404080048A9
S12303405454542000043F444020003C4040207C001C2040201C003C4030403C00442810E2
S12303602844001CA0A0A07C004464544C4400000877410000000063000000004177080026
S1230380000804080804003A4040207A003D4040403D002154545479007D1211127D0039AD
S12303A044444439003D4242423D000205020000007E01495573007C1010081CAE2000B01D
S12303C0C8001040813FA1A6A83FA4D300D5F0D922DA12DB208D140011241FBECFEFD8E0CC
S12303E0DEBFCDBF14E0A0E0B1E0E2E1FAE202C005900D92A43BB107D9F725E0A4EBB4E0A7
S123040001C01D92AE37B207E1F70E941F0F0C9407150C940000A82FB92F8FEF9FEF1BC020
S12304202D918227282F22952827722F269526952727239526952170782F892F82272195CD
S1230440207C922F222776952795972782277695279597278227615018F7809590950895FF
S1230460DADF8D939D930895CF93CFB7CF93C3954B9BE9F74B9B09C04B9B07C04B9B05C063
S12304804B9B03C04B9B01C0A1C0DF93C091F104DD27C850DB4F4B9B02C0DF91EBCF2F9315
S12304A00F931F9309B12FEF03FB20F94F933F9319B14FEF012703FB21F93BE031C04E7F20
S12304C0012F19B1216028C0102F4D7F2260000009B129C04B7F2460012F000019B12BC052
S12304E019B1477F28602AC04F7E09B120612CC04F7D19B120622FC04F7B09B1206432C001
S1230500422709B149934FEF0000102713FB20F919B11C70C9F1297F91F2012703FB21F9C1
S123052009B1237F89F2315058F1102713FB22F919B1277E79F2012703FB23F92F7C81F27C
S123054009B1102713FB24F92F7971F200C019B1012703FB25F92F7359F200C009B1102704
S123056013FB26F9223040F200C019B1012703FB27F9243028F64F77206819B10000F9CFA4
S123058011E01CBB002717C03B503195C31BD04011E01CBB0881033CE9F00B34D9F0209130
S12305A0EF041981110F1213EDCF093641F10D3211F0013E39F70093F6043F914F911F919C
S12305C00F912F91DF91CCB3C0FD51CFCF91CFBFCF9118952091F604222379F31091F404FB
S12305E0112311F5343012F13093F4042093F0041091F1043BE0311B3093F10417C00091D7
S1230600F40401308CF40AE53091010134FD10C000930101C4EED4E00FC02795A8F45150B7
S1230620A9F4220F0000F9CF4AE503C042ED01C0432FC4E1D0E032E01AB11C605B9A1AB956
S12306400BB120E41CE05F93012756E00BB9279520F4515021F4220FF9CF012756E00000E9
S12306603B5A0BB9D0F2279528F4515029F4220F0000F9CF012756E027950BB920F4515039
S123068021F4220FF9CF012756E0299133230BB921F6037F1091F504110FC651D0400BB9D8
S12306A011F01093EF0411E01CBB08601AB1137F402F437F5F9100C000C00BB91AB94BB9D6
S12306C07CCFCF93DF938091F404835087FD8AC09091F0049D3209F083C0883009F080C03C
S12306E08091F104CCE0D0E0C81BD109C850DB4F83EC8093E4048AE5809301011092B4044D
S12307008881807621F0CE010E94AF1060C08A811092ED049981911106C01092EE042DEEA6
S123072034E082E050C0953019F48093F5043DC09630A9F59B81913019F48EED90E004C057
S1230740923041F48CEC90E09093F3048093F20482E121C09330F1F4811108C084E391E075
S12307609093F3048093F20484E015C0813041F48EE091E09093F3048093F20486E20BC0FE
S1230780823041F480EF90E09093F3048093F2048EE101C080E090E49093B40418C09830ED
S12307A079F0993031F48093F7042DEE34E080E00AC081E09A3009F080E02DEE34E003C001
S12307C027EF34E081E03093F3042093F2049F81911104C09E81981708F4892F809300010B
S12307E01092F4048091010184FF4CC0809100018F3F09F447C0C82F893008F0C8E08C1BDE
S1230800809300019091E40488E889278093E404CC2359F18091F2049091F3042091B404DB
S123082026FF12C0A4EEB4E02C2FAC01445E5440FA01EA0FFB1FE4911196EC931197215097
S123084011962111F5CF08C0E5EEF4E0DC012C2F3D9131932150E1F701962FEF2C0F820FF4
S1230860911D9093F3048093F2046C2F85EE94E00E943002CC5FCC3019F08FEF809300018B
S1230880C093010184E199B19C7031F48150D9F71092F5041092EF04DF91CF910895E9E612
S12308A0F0E0808182608083E89A08951092B90087E08093B80084E08093BC00089594EA84
S12308C09093BC002CE330E09091BC0097FD07C021503109C9F780910E05816010C080938B
S12308E0BB0084E88093BC008CE390E02091BC0027FD08C00197D1F780910E05826080934D
S12309000E050895089584E98093BC0008958093BB0084E88093BC008CE390E02091BC0058
S123092027FD08C00197D1F780910E05846080930E050895089584EC8093BC008CE390E0E1
S12309402091BC0027FD09C00197D1F780910E05886080930E0580E008958091BB00089541
S123096084E88093BC008CE390E02091BC0027FD09C00197D1F780910E05806180930E0574
S123098080E008958091BB000895FF920F931F93CF93DF93F82E092F162F88E70E945F041D
S12309A080E00E948704CF2DD02FCE01810F911D8C01C017D10721F089910E948704F9CF42
S12309C0DF91CF911F910F91FF900C948304EF92FF920F931F93CF93DF937C018B0188E78B
S12309E00E945F0480E40E948704E7010E0D1F1DC017D10721F089910E948704F9CFDF91DF
S1230A00CF911F910F91FF90EF900C948304CF93DF9300D000D0CDB7DEB78631B0F468306D
S1230A20A0F4982F990F890F880F8093B5046093B6046055698391E29A838B838FE78C8343
S1230A4064E0CE0101960E94C5040F900F900F900F90DF91CF910895CF93DF9300D000D020
S1230A60CDB7DEB7E5EBF4E01082118280EB898381E28A831B828FE78C8364E0CE010196DD
S1230A800E94C5040F900F900F900F90DF91CF910895EF92FF921F93CF93DF93CDB7DEB74D
S1230AA0C058D1090FB6F894DEBF0FBECDBFCE0101967C0180E8F70111928A95E9F710E024
S1230AC0612F80E00E94070560E870E0C7010E94E7041F5F1830A1F70E942C05C058DF4F10
S1230AE00FB6F894DEBF0FBECDBFDF91CF911F91FF90EF9008951F93CF93DF93CDB7DEB7E1
S1230B006C970FB6F894DEBF0FBECDBF182F0E945604ECEBF3E0DE0111969E01245E3F4F65
S1230B20CD0144914D933196A217B307D1F71C8F6CE10E94C5040E9449056C960FB6F89486
S1230B40DEBF0FBECDBFDF91CF911F9108951F93CF93DF931F92CDB7DEB7182F88E70E94D6
S1230B605F04113011F086EA01C087EA898361E0CE0101960E94C5040F90DF91CF911F91ED
S1230B8008951F93CF93DF931F92CDB7DEB7182F88E70E945F04113011F08FEA01C08EEAB5
S1230BA0898361E0CE0101960E94C5040F90DF91CF911F910895CF93DF9300D0CDB7DEB79A
S1230BC091E899838A8362E0CE0101960E94C5040F900F90DF91CF9108958F929F92AF921E
S1230BE0BF92CF92DF92EF92FF920F931F93CF93DF93CDB7DEB760970FB6F894DEBF0FBEC9
S1230C00CDBF893001F1B8F4883009F045C08091B504909102016091B604891B0E9407054C
S1230C2080E20E94ED058091B504909102016091B604891B1FC08A3021F18D3069F56091C6
S1230C40B60480E017C08091B5049091020124E0929FA0011124BA01680F711D25E130E0D0
S1230C60241B350B6217730740F4990F990F6091B604890F0E940705FBC06091B60485E1BD
S1230C80F9CF6091B604673008F0F2C080910201680F8091B504EECF9091B5049A3708F0E7
S1230CA0E7C0803208F4E4C08052E9E3F1E0E4918E17F8F040E0082F10E0242F30E0220FEB
S1230CC0331FC901875C9E4FFC0154915F3F09F4CFC0F901E85CFE4FE491F0E0B097E0170A
S1230CE0F10729F4FC0184918F3F19F4C1C04F5FE4CF90910201F6E08F9F8001112492306C
S1230D0009F098C0CE0101967C01DC0120E030E0CC24C394D12C11961C921E92F801E20F7B
S1230D20F31FE45BFE4FE49141E050E080E090E0AE2EB12CB501082E02C0759567950A9470
S1230D40E2F760FF1BC0ED91FC911197B601042E02C0660F771F0A94E2F7E62BF72BBC01AC
S1230D60660F771F460102C0880C991C6A95E2F7B4016E2B7F2B11967C936E9301964E5F47
S1230D805F4F88309105B1F62F5F3F4F12962630310509F0C0CF88E70E945F0480E40E945A
S1230DA087048E01035F1F4F6701F601B080F2E0CF0ED11C8B2D0E9487048B2D0E94870450
S1230DC00C151D0591F70E9483048091B6048F548D8781E28E878091B5048F878FE7888B78
S1230DE064E0C8010E94C50488E70E945F0480E40E948704F701D180F2E0EF0EF11C8D2D93
S1230E000E9487048D2D0E9487040E151F0591F70E9483048091B60480558D878091B50444
S1230E20845F8F8764E0C8010E94C5048091B504845F1CC088E70E945F0480E40E948704AF
S1230E40E12CF12CF801EE0DFF1DE45BFE4F84910E9487042FEFE21AF20A86E0E816F10417
S1230E6089F70E9483048091B5048A5F8093B50460960FB6F894DEBF0FBECDBFDF91CF9139
S1230E801F910F91FF90EF90DF90CF90BF90AF909F908F900895809302010895CF93DF9322
S1230EA0EC018991882319F00E94ED05FACFDF91CF910895CF93DF93FC018491EF0121961C
S1230EC0882321F00E94ED05FE01F7CFDF91CF91089578941F920F920FB60F9211242F93D1
S1230EE03F938F939F9390B18091CB04892790B19093CB0480FF0AC02091200530912105BE
S1230F002F5F3F4F309321052093200581FF0AC020911805309119052F5F3F4F30931905FC
S1230F202093180582FF0AC020911C0530911D052F5F3F4F30931D0520931C0583FF09C0BD
S1230F4080911A0590911B05019690931B0580931A059F918F913F912F910F900FBE0F9025
S1230F601F90189578941F920F920FB60F9211242F933F938F939F9393B18091CA0489275D
S1230F8093B19093CA0480FF0AC020912605309127052F5F3F4F309327052093260581FF9D
S1230FA00AC020912805309129052F5F3F4F309329052093280582FF09C080912405909104
S1230FC02505019690932505809324059F918F913F912F910F900FBE0F901F901895789470
S1230FE01F920F920FB60F9211242F933F938F939F939CB18091C90489279CB19093C90400
S123100085FF0AC020912205309123052F5F3F4F309323052093220586FF09C080911E055A
S123102090911F05019690931F0580931E059F918F913F912F910F900FBE0F901F9018950C
S123104078941F920F920FB60F9211244F925F926F927F928F929F92AF92BF92CF92DF92F9
S1231060EF92FF920F931F932F933F934F935F936F937F938F939F93AF93BF93CF93DF93CE
S1231080EF93FF9387EC9DE290939900809398008BE494E090939B0080939A008091CC04B0
S12310A09FEF980F9530E8F0ACE4B5E0E8E1F5E08CE395E065E040815181649F9001659F43
S12310C0300D11242D933D93119211928E179F0791F78091CC04882309F181508093CC04B7
S12310E01DC08130B1F7ECE4EE2EE5E0FE2E08E115E0C4E1D0E0F80160817181F7016193EE
S123110071937F01CE010E94DE14F801119211928F012296C833D10571F7DBCF6091400544
S12311207091410580914205909143052091D8043091D9044091DA045091DB040E946714EC
S123114029013A0182E076946794579447948A95D1F7609144057091450580914605909110
S123116047052091DC043091DD044091DE045091DF040E94671449015A0192E0B694A794BC
S1231180979487949A95D1F7609148057091490580914A0590914B052091E0043091E10475
S12311A04091E2045091E3040E94671469017A0122E0F694E794D794C7942A95D1F7609165
S12311C03C0570913D0580913E0590913F052091D4043091D5044091D6045091D7040E94A2
S12311E06714DA01C90132E0B695A795979587953A95D1F79C01220F331FF901ED5FFE4FA0
S1231200808191819093110580931005C201880F991FFC01ED5FFE4F808191819093130560
S123122080931205C401880F991FFC01ED5FFE4F808191819093150580931405C601880FFC
S1231240991FFC01ED5FFE4F80819181909317058093160510923C0510923D0510923E0510
S123126010923F05109240051092410510924205109243051092440510924505109246051E
S123128010924705109248051092490510924A0510924B051092D4041092D5041092D60429
S12312A01092D7041092D8041092D9041092DA041092DB041092DC041092DD041092DE0426
S12312C01092DF041092E0041092E1041092E2041092E3041092CF048091CD049091CE041D
S12312E001969093CE048093CD048091D004823020F098B180E2892788B98091D10482309F
S123130020F098B180E4892788B98091D204823018F088B1805888B98091D304823020F07E
S12313209EB188E089278EB9FF91EF91DF91CF91BF91AF919F918F917F916F915F914F915B
S12313403F912F911F910F91FF90EF90DF90CF90BF90AF909F908F907F906F905F904F9015
S12313600F900FBE0F901F90189578941F920F920FB60F9211248F939F93809198009091EB
S123138099008953924D90939900809398008091CD049091CE0401969093CE048093CD0449
S12313A08091D004833021F498B180E2892788B98091D104833021F498B180E4892788B994
S12313C08091D204833019F488B1805888B98091D304833021F49EB188E089278EB99F9182
S12313E08F910F900FBE0F901F90189578941F920F920FB60F9211248F939F9380919A006A
S123140090919B00855B9B4F90939B0080939A008091D004823021F498B180E2892788B98F
S12314208091D104823021F498B180E4892788B98091D204823019F488B1805888B9809154
S1231440D304823021F49EB188E089278EB99F918F910F900FBE0F901F90189578941F92C8
S12314600F920FB60F9211242F933F938F939F93AF93BF9380917C008F70853009F464C04E
S123148080F5843009F0BBC0209178003091790080913C0590913D05A0913E05B0913F059A
S12314A0820F931FA11DB11D80933C0590933D05A0933E05B0933F058091D4049091D504C0
S12314C0A091D604B091D7040196A11DB11D8093D4049093D504A093D604B093D70485E443
S12314E08CC0863009F45DC0873009F088C020917800309179008091480590914905A09173
S12315004A05B0914B05820F931FA11DB11D8093480590934905A0934A05B0934B05809121
S1231520E0049091E104A091E204B091E3040196A11DB11D8093E0049093E104A093E20443
S1231540B093E30484E459C020917800309179008091400590914105A0914205B0914305BB
S1231560820F931FA11DB11D8093400590934105A0934205B09343058091D8049091D904E7
S1231580A091DA04B091DB040196A11DB11D8093D8049093D904A093DA04B093DB0486E469
S12315A02CC020917800309179008091440590914505A0914605B0914705820F931FA11D09
S12315C0B11D8093440590934505A0934605B09347058091DC049091DD04A091DE04B0911C
S12315E0DF040196A11DB11D8093DC049093DD04A093DE04B093DF0487E480937C008091A4
S12316007A00806480937A00BF91AF919F918F913F912F910F900FBE0F901F901895089864
S123162009980A980B982098219822982598269827983A985098569857986A986B986D98BA
S12316406E98109A119A129A139A289A299A2A9A2D9A2E9A2F9A429A589A5E9A5F9A729A66
S1231660759A769A8FE080936B0087E080936C0080E680937500E8E6F0E080818361808300
S123168084E480937C008FEC80937A000895239A249A549A559A91EA94BD81E085BD9093C0
S12316A080008093810080E090E00E94BE1487BD81E090E00E94BE1488BD82E090E00E948C
S12316C0BE1490E090938B0080938A0083E090E00E94BE1490E090938900809388004398A0
S12316E044984598469847983B9A3C9A3D9A3E9A3F9A73986B9A109290008DE180939100E9
S123170084E599E8909397008093960087EC9DE290939900809398008BE494E090939B007E
S123172080939A0086E28093710008950F93880F411104C0011134C080E06AC094EA9093EF
S1231740BC009091BC0097FFFCCF9091B900987F983019F0903109F05FC08093BB0094E8A6
S12317609093BC009091BC0097FFFCCF9091B900987F983109F050C0FB0154E89191909308
S1231780BB005093BC009091BC0097FFFCCF9091B900987F983209F03FC0415079F7CACF60
S12317A094EA9093BC009091BC0097FFFCCF9091B900987F983011F0903171F58F5F8093A8
S12317C0BB0084E88093BC008091BC0087FFFCCF8091B900887F8034F9F4F90194EC34E8E9
S12317E0013019F43093BC0002C09093BC008091BC0087FFFCCF8091B900807F803561F496
S12318008091BB00819301508E2F821B0111E8CF94E99093BC0004C084E98093BC0080E0B4
S12318200F910895CF92DF92EF92FF920F931F93CF93DF9300D000D0CDB7DEB7A8958FEAEC
S12318400E947B050E9449058FEF0E94DB05A89582E00E944B0700E010E0FF24F39494E1F0
S1231860C92ED12CC80188539F4F0E94BE14E82E8FEF8E0D8E3F50F4C801B6010E945314A1
S12318800E9407058E2D0E94ED05F12C0F5F1F4F003A110539F7A89581E00E944B0700E05C
S12318A010E084E1C82ED12CC80188599E4F0E94BE14E82E8FEF8E0D8E3F68F4C801B601F9
S12318C00E9453140E940705E9821A82CE0101960E944E07F12C0F5F1F4F003A110521F788
S12318E0A895FF2009F458C082E00E944B0760E081E00E94070583E093E00E944E0763E0BE
S123190080E00E9407058DE093E00E944E0781E00E944B0765E080E00E94070588E193E05A
S12319200E944E0780E990E00E94BE144AE0BE016F5F7F4F90E00E948914CE0101960E9423
S12319404E0766E080E00E94070587E293E00E944E078DE890E00E94BE144AE0BE016F5FF7
S12319607F4F90E00E948914CE0101960E944E0767E080E00E94070586E393E00E944E0761
S12319804AE0BE016F5F7F4F80E190E00E948914CE0101960E944E07A8950F900F900F9037
S12319A00F90DF91CF911F910F91FF90EF90DF90CF900895CF93DF93CDB7DEB76A970FB638
S12319C0F894DEBF0FBECDBF519859980FB6F894A89580916000886180936000109260004A
S12319E00FBE8FEF87BD88BD8FEF90E090938B0080938A001092D0041092D1041092D20471
S1231A001092D30445984698479873980E94490582E00E944B0760E080E00E94070585E4A7
S1231A2093E00E944E0781E00E944B0762E080E00E9407058EE493E00E944E0766E080E011
S1231A400E94070582E693E00E944E07E8ECCE2ED12CF3E08F2E912CA7E05A2EFE01319613
S1231A605F016CE4E62E65E0F62E00E010E03701F701819191917F01F501819391935F01F3
S1231A80C801B4010E9453146D5F589E802D11240E9407054AE0BE016D5E7F4FF3018081F2
S1231AA091810E948914CE0143960E944E070F5F1F4F09301105D9F670E1E72E75E0F72E58
S1231AC010E067E0812F0E9407054AE0BE016D5E7F4FF701819191917F010E948914CE0131
S1231AE043960E944E071B5F143159F7FFE729EA83E0F15020408040E1F700C0000091E03D
S1231B00C91AD10809F0AACF8FE787BD88BD8FE790E090938B0080938A000E94490582E011
S1231B200E944B0760E080E00E94070586E793E00E944E07FFEF2EE984E2F15020408040BC
S1231B40E1F700C00000439A9FE7EFE4F2E19150E040F040E1F700C000004398459A469A7D
S1231B60479A739A0E94490582E00E944B0760E080E00E94070585E493E00E944E0781E0AB
S1231B800E944B0762E080E00E9407058FE793E00E944E0766E080E00E94070582E993E0EB
S1231BA00E944E0798ECE92EF12C23E0C22ED12C37E0732E42E8642E5AE0A52EB12C8CE4B4
S1231BC0882E85E0982E00E010E0C801B6010E9453146D5F789E802D11240E9407054AE02B
S1231BE0BE016D5E7F4FF401819191914F010E948914CE0143960E944E070F5F1F4F09301D
S1231C00110519F7698E02E09E01275E3F4F41E0B90181E00E94960B898D9A8D98278927E4
S1231C209827B5010E943F14CB014AE0BE016D5E7F4F0E94891467E080E00E9407058DE9DE
S1231C4093E00E944E07CE0143960E944E07FFE729EA83E0F15020408040E1F700C0000022
S1231C6091E0E91AF10809F0AACF0E94490581E00E944B0789819A818836904150F462E002
S1231C8080E00E94070583EA93E00E944E0711E001C010E080914C0590914D058D3A9D4040
S1231CA060F001E0010F62E0610F80E00E94070587EB93E00E944E07102F8F819885883619
S1231CC0904160F401E0010F62E0610F80E00E9407058BEC93E00E944E07102F80915205A2
S1231CE0909153058D3A9D4060F001E0010F62E0610F80E00E9407058FED93E00E944E07DC
S1231D00102F8D859E858836904160F401E0010F62E0610F80E00E94070583EF93E00E9430
S1231D204E07102F80915805909159058D3A9D4060F001E0010F62E0610F80E00E94070579
S1231D4087E094E00E944E07102F80911005909111058536910560F001E0010F62E0610FCD
S1231D6080E00E9407058BE194E00E944E07102F80911205909113058536910560F001E058
S1231D80010F62E0610F80E00E9407058FE294E00E944E07102F898D9A8D982789279827E9
S1231DA080529340823A984060F001E0010F62E0610F80E00E94070583E494E00E944E0713
S1231DC0102F82E00E944B0760E080E00E940705112329F084E594E00E944E072FC08EE599
S1231DE094E00E944E0781E00E944B0762E084E00E94070588E694E00E944E0763E084E04B
S1231E000E94070585E794E00E944E0764E084E00E94070582E894E00E944E0765E084E065
S1231E200E9407058FE894E00E944E0766E084E00E9407058CE994E00E944E07FFCF9FE089
S1231E4088E10FB6F894A895809360000FBE90936000A895A3E7B5E0EEE0F0E091E2909334
S1231E60570084918D933196E831F105C1F70E94120C0E944F04519A599A0E940F0B0E9453
S1231E80470B7894A895109272051092710584E690E00E94BE1480930F05833018F160E001
S1231EA084E690E00E94CC1410920F0562E085E690E00E94CC1460E086E690E00E94CC14CF
S1231EC060E070E087E690E00E94DE1460E070E089E690E00E94DE1460E070E08BE690E089
S1231EE00E94DE1485E690E00E94BE1480937D0586E690E00E94BE148093700580910F0569
S1231F00823019F487E690E004C0813041F489E690E00E94C6149093720580937105C0E059
S1231F20D0E013E00E946103A89562990EC021968FE295E70197F1F700C00000A895CD32CE
S1231F4091E0D90724F00E94DA0CC0E0D0E02091CD043091CE0480917105909172052817CD
S1231F60390708F4C2C080910F05823009F048C060917D05611134C061E084E690E00E9431
S1231F80CC1462E085E690E00E94CC148BE690E00E94C614BC016F5F7F4F8BE690E00E9485
S1231FA0E4142FE789EA93E0215080409040E1F700C00000439A2FE78FE492E12150804086
S1231FC09040E1F700C0000043989CE088E10FB6F894A895809360000FBE90936000FFCFB6
S1231FE0615085E690E00E94CC149CE088E10FB6F894A895809360000FBE90936000FFCFCB
S1232000813009F072C060917D0561115EC080917005811124C084E690E00E94CC141092E3
S12320200F0562E085E690E00E94CC1482E080937D058BE690E00E94C614BC016F5F7F4F3C
S12320408BE690E00E94E4142FE789EA93E0215080409040E1F700C00000449A46C062E046
S123206085E690E00E94CC1460917005615086E690E00E94CC148BE690E00E94C614BC0170
S12320806F5F7F4F8BE690E00E94E4142FE789EA93E0215080409040E1F700C00000439AB3
S12320A02FE78FE492E1215080409040E1F700C0000043989CE088E10FB6F894A895809326
S12320C060000FBE90936000FFCF615085E690E00E94CC149CE088E10FB6F894A8958093EA
S12320E060000FBE90936000FFCF80910F05882379F080917D05813019F41093D10408C094
S1232100811104C082E08093D10402C01092D1048091D004811101C045988091D004813037
S123212009F4459A8091D104811102C0469803C0813009F4469A8091D204811102C047983C
S123214003C0813009F4479A8091D304811102C07398E8CE813009F0E5CE739AE3CECF92B0
S1232160DF92EF92FF920F931F93CF93DF9300D000D0CDB7DEB727EB34E03093F304209364
S1232180F204DC0111961C91193009F4BDC07C011A30C8F5143009F49AC0D0F4113009F430
S12321A066C008F4F6C0123009F477C0133009F057C3FC01848190E0880F991FFC01E45B7A
S12321C0FA4F20812093B704FC01E35BFA4FCEC0163009F4F6C008F4CEC0173009F404C105
S12321E0183009F03DC3DC0114968C9190E0880F991FFC01E05FFA4F20812093B704FC01A6
S1232200EF5EFA4FB3C01F3009F494C0F0F41B3009F45FC108F44CC11D3009F496C01E30CE
S123222009F01EC3DC011496EC90F12CBAE0EB0EF11CEE0CFF1CC7010E94BE148093B704E1
S1232240C70101960E94BE1492C0113909F46EC238F4103109F449C1113109F4D8C100C3CF
S1232260123909F481C2133909F488C2F9C2FC018481863028F4833048F480E090E008C026
S1232280893008F0EDC282E090E002C081E090E00E94BE148093B704E4C2DC0114968C91E9
S12322A0863038F4833060F4F701628180E090E00CC0893060F4F701628182E090E005C03B
S12322C0D70112966C9181E090E00E94CC141091CC041111C5C2D70114968C911497863010
S12322E030F412969C91833068F497BDBAC2893008F0B7C2F701828190E090938B008093AC
S12323008A00AFC298BDADC2DC0114968C91863020F4833050F487B509C0893008F0A0C27D
S123232080918A0090918B0001C088B58093B70411E097C2FC0162817381848190E00A9653
S1232340880F991F0E94DE148BC28FEF87BD88BD8FEF90E090938B0080938A00909389005D
S12323608093880084E18093CC047AC280818093B80412E076C2DC011496EC911497E4307D
S123238008F06EC2F0E0E053FB4F12968C91808367C2469A1092CE041092CD0462E085E65F
S12323A090E00E94CC1482E080937D05BFE7E9EAF3E0B150E040F040E1F700C0000046981D
S12323C050C237EBE32E34E0F32E04E610E0C8010E94BE14D7018D937D010F5F1F4F0D36D3
S12323E01105A9F719E03DC21092CE041092CD0460E084E690E00E94CC1410920F0562E0B0
S123240085E690E00E94CC1412E010937D05F701658186E690E00E94CC14D70115968C9168
S12324201597809370051092D10414966C91662309F416C2B4E16B9FB001112489E690E084
S12324400E94DE14F7018481F4E18F9FC0011124909372058093710561E084E690E00E940E
S1232460CC1481E080930F05D70112968D919C911397009709F4F4C123E0C22ED12CB6018B
S12324800E943F1487E690E00E94DE14F70182819381B6010E943F14709372056093710534
S12324A062E084E690E00E94CC1410930F05D8C180E18093B70480E990E00E94BE1480939B
S12324C0B8048DE890E00E94BE148093B90413E0C8C1E3E7F5E0A7EBB4E081918D9325E09B
S12324E0ED37F207D1F71AE0BCC182E8898302E09E012F5F3F4F41E0B90181E00E94960BEA
S12325008A818093B70489818093B80483E889839E012F5F3F4F41E0B90181E00E94960B54
S12325208A818093B90489818093BA0486E889839E012F5F3F4F41E0B90181E00E94960B2D
S12325408A818093BB0489818093BC0481E889839E012F5F3F4F41E0B90181E00E94960B0E
S12325608A818093BD0489818093BE0488E889839E012F5F3F4F41E0B90181E00E94960BE3
S12325808A818093BF0489818093C00415E819839E012F5F3F4F41E0B90181E00E94960BA2
S12325A08A818093C10489818093C20484E889839E012F5F3F4F41E0B90181E00E94960B9F
S12325C08A818093C30489818093C40419839E012F5F3F4F41E0B90181E00E94960B8A814C
S12325E08093C50489818093C60487E889839E012F5F3F4F41E0B90181E00E94960B8A8154
S12326008093C70489818093C80412E12AC1DC0115966C91159714968C910E940705F70173
S123262083818D7F19F481E00E944B07D70113968C918D7F813019F482E00E944B07F7016E
S123264082810E94ED05D70113968C911397823089F415968C91159714962C91B4E18B9FCE
S1232660C0011124820F911DF701628188599E4F0E94CC14D70113968C911397833009F002
S123268041C015968C91159714962C91B4E18B9FC0011124820F911DF701628188539F4FC2
S12326A00E94CC14D70115962C91159714968C9190E0B4E12B9F800D911D112460E0875388
S12326C09F4F0E94CC14F7012581848190E0F4E12F9F800D911D112460E084529F4F0E94BA
S12326E0CC14D70115962C91159714968C9190E0B4E12B9F800D911D112460E083529F4F01
S12327000E94CC14F7018381843009F0A9C00E94490508EC10E060E0C8010E94CC140F5F54
S12327201F4F0830F2E01F07B1F79AC08091CF048F5F8093CF04853008F492C0439A2FE747
S12327403FE482E1215030408040E1F700C0000043989CE088E10FB6F894A89580936000F5
S12327600FBE90936000FFCF8091CF048F5F8093CF04853008F474C0449A72C08091CF04A6
S12327808F5F8093CF04853008F46AC063E983E990E00E94CC149CE088E10FB6F894A89569
S12327A0809360000FBE909360000E94490582E00E944B0760E081E00E94070583E093E0E7
S12327C00E944E0763E080E00E94070589EA94E00E944E0781E00E944B0765E080E00E9433
S12327E0070588E193E00E944E0780E990E00E94BE144AE0BE016F5F7F4F90E00E94891475
S1232800CE0101960E944E0766E080E00E94070587E293E00E944E078DE890E00E94BE14D7
S12328204AE0BE016F5F7F4F90E00E948914CE0101960E944E0767E080E00E94070586E345
S123284093E00E944E074AE0BE016F5F7F4F80E190E00E948914CE0101960E944E07FFCF4A
S123286010E0812F0F900F900F900F90DF91CF911F910F91FF90EF90DF90CF900895AA1BDA
S1232880BB1B51E107C0AA1FBB1FA617B70710F0A61BB70B881F991F5A95A9F7809590959C
S12328A0BC01CD01089597FB072E16F4009407D077FD09D00E943F1407FC05D03EF490953F
S12328C081959F4F0895709561957F4F0895A1E21A2EAA1BBB1BFD010DC0AA1FBB1FEE1F0C
S12328E0FF1FA217B307E407F50720F0A21BB30BE40BF50B661F771F881F991F1A9469F75A
S123290060957095809590959B01AC01BD01CF010895BB274A3031F4992322F4BDE29095F4
S123292081959F4F0C949514BB27FB015527AA27880F991FAA1FA41710F0A41B83955051D0
S1232940B9F7A05DAA3308F0A95DA193009779F7B111B1931192CB010C94AE14DC01FC01FF
S1232960672F71917723E1F7329704C07C916D9370836291AE17BF07C8F30895F999FECF87
S123298092BD81BDF89A992780B50895A8E1B0E042E050E00C94EB14262FF999FECF92BD75
S12329A081BDF89A019700B4021639F01FBA20BD0FB6F894FA9AF99A0FBE08950196272F31
S12329C00E94CD140C94CC140E94F914272F0C94FA14DC01CB01FC01F999FECF06C0F2BDC3
S12329E0E1BDF89A319600B40D9241505040B8F70895262FF999FECF1FBA92BD81BD20BD25
S1232A000FB6F894FA9AF99A0FBE01960895F894FFCFFF5A011901EF00C500AF00A10096D1
S1232A20008E00870081007C007800740071006E006B0068006600630061005F005D005BA1
S1232A40005A0058005700550054005200510050004F004D004C004B004A00490048004778
S1232A60004600450044004400430042004100400040003F003E003D003D003C003B003B50
S1232A80003A003900390038003700370036003600350035003400330033003200320031DB
S1232AA0003100300030002F002F002E002E002D002D002C002C002B002B002A002A002A41
S1232AC0002900290028002800270027002700260026002500250025002400240023002392
S1232AE0002300220022002100210021002000200020001F001F001E001E001E001D001DD6
S1232B00001D001C001C001B001B001B001A001A001A001900190019001800180018001713
S1232B2000170017001600160016001500150014001400140013001300130012001200124C
S1232B40001100110011001000100010000F000F000F000E000E000E000D000D000D000C84
S1232B60000C000B000B000B000A000A000A000900090009000800080008000700070006BF
S1232B800006000600050005000500040004000300030003000200020001000100010000FE
S1232BA0000000FFFFFFFFFEFFFEFFFEFFFDFFFDFFFCFFFCFFFBFFFBFFFAFFFAFFF9FFF959
S1232BC0FFF8FFF8FFF7FFF7FFF6FFF6FFF5FFF5FFF4FFF3FFF3FFF2FFF2FFF1FFF0FFF0BE
S1232BE0FFEFFFEEFFEDFFEDFFECFFEBFFEAFFE9FFE8FFE7FFE6FFE5FFE4FFE3FFE2FFE05D
S1232C00FFDFFFDDFFDCFFDAFFD8FFD5FFD2FFCEFFC9FFC4FF4F43544F4D494E4552004976
S1232C204E4954204F4C454421004861726477617265207265762E2000426F6F746C64658E
S1232C4072207265762E20004669726D77617265207265762E2000544553544D4F444500E6
S1232C6046414E2052504D3A202850574D3D31303025290054656D706572617475726573D9
S1232C803A2028C2B043290052455345542E2E2E0046414E2052504D3A202850574D3D35F7
S1232CA0302529003138303057205053553A005661633D200046414E2030204D415820520C
S1232CC0504D203C343230300046414E2030203530252050574D203E333530300046414E53
S1232CE02033204D41582052504D203C343230300046414E2033203530252050574D203E02
S1232D00333530300046414E2036204D41582052504D203C343230300046414E2036203505
S1232D2030252050574D203E333530300054656D702030206F7574206F662072616E676580
S1232D400054656D702031206F7574206F662072616E676500505355206F7574206F662069
S1232D6072616E67650054455354204641494C005445535420504153530020205F5F5F20B2
S1232D80205F20205F5F00202F205F205C7C207C2F202F007C207C207C207C2027202F20CC
S1232DA0007C207C5F7C207C202E205C2000205C5F5F5F2F7C5F7C5C5F5C00424F4F544CE0
S1092DC04F41444552009E
S12370009EC00000DDC00000C1C00000BFC00000BDC00000BBC00000B9C00000B7C0000089
S1237020B5C00000B3C00000B1C00000AFC00000ADC00000ABC00000A9C00000A7C00000DC
S1237040A5C00000A3C00000A1C000009FC000009DC000009BC0000099C0000097C000003C
S123706095C0000093C0000091C000008FC000008DC000008BC0000089C0000087C000009C
S123708085C0000083C0000081C000007FC000007DC000007BC0000079C0000077C00000FC
S12370A075C0000073C0000071C000006FC000006DC000006BC0000069C0000067C000005C
S12370C065C0000063C0000061C00000BBBEEC2DFD2DB7B6B0FCFDCF27BFE895B7B6B0FC26
S12370E0FDCF21E1B7B6B6FCF4CF089509021200010100803209040000000000000012014E
S12371001001FF000008C016DC050201010200010E035500530042006100730070001C0337
S12371207700770077002E00660069007300630068006C002E0064006500040309041124FF
S12371401FBECFEFD8E0DEBFCDBF24B7D8E0CEEF39913833399109F03FEF30933C01209386
S12371603B0111E0A0E0B1E0EEE9F9E702C005900D92A630B107D9F721E0A6E0B1E001C0E9
S12371801D92AB33B207E1F796D107C439CFA82FB92F80E090E041E050EA609530E009C0DB
S12371A02D9182279795879510F084279527305EC8F36F5FA8F30895EADF8D939D930895B0
S12371C0CF93CFB7CF93C3954B9BE9F74B9B09C04B9B07C04B9B05C04B9B03C04B9B01C0EC
S12371E0A1C0DF93C0911E01DD27CB5DDE4F4B9B02C0DF91EBCF2F930F931F9309B12FEF2F
S123720003FB20F94F933F9319B14FEF012703FB21F93BE031C04E7F012F19B1216028C01B
S1237220102F4D7F2260000009B129C04B7F2460012F000019B12BC019B1477F28602AC0E5
S12372404F7E09B120612CC04F7D19B120622FC04F7B09B1206432C0422709B149934FEFF8
S12372600000102713FB20F919B11C70C9F1297F91F2012703FB21F909B1237F89F23150D9
S123728058F1102713FB22F919B1277E79F2012703FB23F92F7C81F209B1102713FB24F9EB
S12372A02F7971F200C019B1012703FB25F92F7359F200C009B1102713FB26F9223040F2A2
S12372C000C019B1012703FB27F9243028F64F77206819B10000F9CF11E01CBB002717C0C2
S12372E03B503195C31BD04011E01CBB0881033CE9F00B34D9F020911C011981110F12132D
S1237300EDCF093641F10D3211F0013E39F7009323013F914F911F910F912F91DF91CCB327
S1237320C0FD51CFCF91CFBFCF91189520912301222379F310912101112311F5343012F187
S12373403093210120931D0110911E013BE0311B30931E0117C00091210101308CF40AE540
S12373603091010134FD10C000930101C1E1D1E00FC02795A8F45150A9F4220F0000F9CFFF
S12373804AE503C042ED01C0432FC4E1D0E032E01AB11C605B9A1AB90BB120E41CE05F9371
S12373A0012756E00BB9279520F4515021F4220FF9CF012756E000003B5A0BB9D0F22795F3
S12373C028F4515029F4220F0000F9CF012756E027950BB920F4515021F4220FF9CF01270D
S12373E056E0299133230BB921F6037F10912201110FC651D0400BB911F010931C0111E065
S12374001CBB08601AB1137F402F437F5F9100C000C00BB91AB94BB97CCFDC0113963C91F2
S12374201397932F1496EC9114978E2F12962C911297203331F4E370F0E0EE5FFE4F808109
S12374400895283529F431110EC0E1E0F0E006C0203599F431110CC0E0E0F0E089E08093AE
S1237460570084910895383021F5E3E0F0E0F6CF3830F9F4E2E0F0E0F1CF203221F4FC011E
S1237480EE0FFF1F06C0283231F4FC01EE0FFF1F319684910895203A09F457C2203C21F416
S12374A015966C916CD205C02F3F19F481EF80930F0180E008953E9A469A6A98729A83E9E0
S12374C090E043D2833949F080E099E0ADE3B0E0A8950197A109B109D9F73D9A459A3F9A9D
S12374E0479A6B9A739A6BE08DE890E036D269E080E990E032D281E085BF92E095BFE0EC00
S1237500F4EDA89531978040E1F783E990E01DD2833929F460E083E990E01FD218C0629B63
S123752016C0339914C0F894519859983D9845983E9846983F9847986B9873981DBA1092C8
S1237540690081E085BF15BEE0E0F0E009958EEF80930F0114BE0FB6F894A89580916000A7
S1237560886180936000109260000FBE80916900826080936900E89A5198599889E0E0EC73
S1237580F7E2A89531978040E1F7519A599A789410912101135017FD41C180911E01CCE06F
S12375A0D0E0C81BD109CB5DDE4F80911D018D3209F0B8C0183009F02FC183EC80931101E1
S12375C08AE580930101109210013881832F807699818823C1F146E051E05093200140936A
S12375E01F01933031F4CE0118DF8093090184E08FC0953009F48BC09A3009F488C08CEF52
S1237600890F8630B0F44A815B8150930E0140930D01993009F491C18E8180930C012D8105
S1237620227020930B0190930A0137FD6CC08FEF6AC080910F01923011F48E7F01C0816028
S123764080930F017AC18A8110921A01911106C010921B012AE131E082E050C0953019F47A
S1237660809322013DC09630A9F59B81913019F48EEF90E704C0923041F48CEE90E79093C2
S1237680200180931F0182E121C09330F1F4811108C08AE391E79093200180931F0184E08C
S12376A015C0813041F48EE191E79093200180931F018CE10BC0823041F480E191E7909392
S12376C0200180931F018EE001C080E090E4909310011EC0983079F0993031F480932401E6
S12376E02AE131E080E00AC081E09A3009F080E02AE131E003C024E231E081E03093200181
S123770020931F0105C090E89093100108C081E09F81911104C09E81981708F4892F8093DD
S123772000017AC08091100187FF76C000910C01011708F4102F011B00930C01F12CF1165B
S123774008F066C020910A0180910D0190910E01273080F06E01FFEFCF1ADF0A68819C0180
S12377602F5F3F4F30930E0120930D0108D1F394E601E5CF8115904708F04CC0F394F394DC
S1237780F894E0910D01F0910E012991399181E0090180935700E8951124789480910D0114
S12377A090910E01029690930E0180930D018F779927892B51F00111C2CFF11608F4BFCFBB
S12377C080910B01882309F4BACFF894E0910D01F0910E01329783E080935700E89578949D
S12377E007B600FCFDCFF894E0910D01F0910E01329785E080935700E895789407B600FC8B
S1237800FDCFF89481E180935700E895789497CF011102C010920001109221018091010103
S123782084FF67C0809100018F3F09F462C0C82F893008F0C8E08C1B80930001909111015D
S123784088E8892780931101CC2309F478C08091100187FF2AC080910C018C1708F4C82F75
S12378608C1B80930C01D0900A01D0E082E1E82E81E0F82EDC1789F100910D0110910E0166
S123788086E08D1518F4C80160D002C0F8018491F7018083FFEFEF1AFF0A0F5F1F4F10938D
S12378A00E0100930D01DF5FE5CFE0911F01F0912001A2E1B1E086FF07C08C2F94919D937F
S12378C031968150D9F705C08C2F91919D938150E1F7F0932001E0931F016C2F82E191E01B
S12378E06BDCCC5FCC3019F08FEF80930001C093010184E199B19C7031F48150D9F7109203
S1237900220110921C0180910F01803130F033990FC080910F01805109C0339B09C0809191
S12379200F01823028F080910F01825080930F0180910F0181112CCEF6CD80E0E9CE60E08C
S123794082E191E039DCC4E0CFCFF999FECF92BD81BDF89A992780B50895262FF999FECF34
S123796092BD81BDF89A019700B4021639F01FBA20BD0FB6F894FA9AF99A0FBE0895262F6A
S1237980F999FECF1FBA92BD81BD20BD0FB6F894FA9AF99A0FBE01960895F894FFCFFF5A15
S10779A01E95170015
S50301BD3E
S90370008C
